{
  "address": "0x296D5897d521Abfd9cE9cC7c3592e302b7C6CB80",
  "abi": [
    {
      "inputs": [
        {
          "internalType": "uint256",
          "name": "initialSupply_",
          "type": "uint256"
        },
        {
          "internalType": "address",
          "name": "feeReceiver_",
          "type": "address"
        },
        {
          "internalType": "address",
          "name": "swapRouter_",
          "type": "address"
        },
        {
          "internalType": "address[]",
          "name": "collectors_",
          "type": "address[]"
        },
        {
          "internalType": "uint256[]",
          "name": "shares_",
          "type": "uint256[]"
        }
      ],
      "stateMutability": "payable",
      "type": "constructor"
    },
    {
      "inputs": [],
      "name": "InvalidShortString",
      "type": "error"
    },
    {
      "inputs": [
        {
          "internalType": "string",
          "name": "str",
          "type": "string"
        }
      ],
      "name": "StringTooLong",
      "type": "error"
    },
    {
      "anonymous": false,
      "inputs": [
        {
          "indexed": true,
          "internalType": "address",
          "name": "owner",
          "type": "address"
        },
        {
          "indexed": true,
          "internalType": "address",
          "name": "spender",
          "type": "address"
        },
        {
          "indexed": false,
          "internalType": "uint256",
          "name": "value",
          "type": "uint256"
        }
      ],
      "name": "Approval",
      "type": "event"
    },
    {
      "anonymous": false,
      "inputs": [
        {
          "indexed": true,
          "internalType": "address",
          "name": "delegator",
          "type": "address"
        },
        {
          "indexed": true,
          "internalType": "address",
          "name": "fromDelegate",
          "type": "address"
        },
        {
          "indexed": true,
          "internalType": "address",
          "name": "toDelegate",
          "type": "address"
        }
      ],
      "name": "DelegateChanged",
      "type": "event"
    },
    {
      "anonymous": false,
      "inputs": [
        {
          "indexed": true,
          "internalType": "address",
          "name": "delegate",
          "type": "address"
        },
        {
          "indexed": false,
          "internalType": "uint256",
          "name": "previousBalance",
          "type": "uint256"
        },
        {
          "indexed": false,
          "internalType": "uint256",
          "name": "newBalance",
          "type": "uint256"
        }
      ],
      "name": "DelegateVotesChanged",
      "type": "event"
    },
    {
      "anonymous": false,
      "inputs": [],
      "name": "EIP712DomainChanged",
      "type": "event"
    },
    {
      "anonymous": false,
      "inputs": [
        {
          "indexed": true,
          "internalType": "address",
          "name": "account",
          "type": "address"
        },
        {
          "indexed": false,
          "internalType": "bool",
          "name": "excluded",
          "type": "bool"
        }
      ],
      "name": "ExcludedFromFees",
      "type": "event"
    },
    {
      "anonymous": false,
      "inputs": [
        {
          "indexed": true,
          "internalType": "address",
          "name": "receiver",
          "type": "address"
        },
        {
          "indexed": false,
          "internalType": "uint256",
          "name": "amount",
          "type": "uint256"
        }
      ],
      "name": "FeeCollected",
      "type": "event"
    },
    {
      "anonymous": false,
      "inputs": [
        {
          "indexed": true,
          "internalType": "address",
          "name": "account",
          "type": "address"
        },
        {
          "indexed": false,
          "internalType": "uint256",
          "name": "share",
          "type": "uint256"
        }
      ],
      "name": "FeeCollectorAdded",
      "type": "event"
    },
    {
      "anonymous": false,
      "inputs": [
        {
          "indexed": true,
          "internalType": "address",
          "name": "account",
          "type": "address"
        }
      ],
      "name": "FeeCollectorRemoved",
      "type": "event"
    },
    {
      "anonymous": false,
      "inputs": [
        {
          "indexed": true,
          "internalType": "address",
          "name": "account",
          "type": "address"
        },
        {
          "indexed": false,
          "internalType": "uint256",
          "name": "oldShare",
          "type": "uint256"
        },
        {
          "indexed": false,
          "internalType": "uint256",
          "name": "newShare",
          "type": "uint256"
        }
      ],
      "name": "FeeCollectorUpdated",
      "type": "event"
    },
    {
      "anonymous": false,
      "inputs": [
        {
          "components": [
            {
              "internalType": "bool",
              "name": "feesInToken",
              "type": "bool"
            },
            {
              "internalType": "uint16",
              "name": "buyFees",
              "type": "uint16"
            },
            {
              "internalType": "uint16",
              "name": "sellFees",
              "type": "uint16"
            },
            {
              "internalType": "uint16",
              "name": "transferFees",
              "type": "uint16"
            },
            {
              "internalType": "uint16",
              "name": "burnFeeRatio",
              "type": "uint16"
            },
            {
              "internalType": "uint16",
              "name": "liquidityFeeRatio",
              "type": "uint16"
            },
            {
              "internalType": "uint16",
              "name": "collectorsFeeRatio",
              "type": "uint16"
            }
          ],
          "indexed": false,
          "internalType": "struct TaxableToken.FeeConfiguration",
          "name": "configuration",
          "type": "tuple"
        }
      ],
      "name": "FeeConfigurationUpdated",
      "type": "event"
    },
    {
      "anonymous": false,
      "inputs": [
        {
          "indexed": true,
          "internalType": "address",
          "name": "previousOwner",
          "type": "address"
        },
        {
          "indexed": true,
          "internalType": "address",
          "name": "newOwner",
          "type": "address"
        }
      ],
      "name": "OwnershipTransferred",
      "type": "event"
    },
    {
      "anonymous": false,
      "inputs": [
        {
          "indexed": true,
          "internalType": "address",
          "name": "pairAddress",
          "type": "address"
        },
        {
          "indexed": false,
          "internalType": "bool",
          "name": "isLp",
          "type": "bool"
        }
      ],
      "name": "SetLpPool",
      "type": "event"
    },
    {
      "anonymous": false,
      "inputs": [
        {
          "indexed": true,
          "internalType": "address",
          "name": "router",
          "type": "address"
        },
        {
          "indexed": true,
          "internalType": "address",
          "name": "pair",
          "type": "address"
        }
      ],
      "name": "SwapRouterUpdated",
      "type": "event"
    },
    {
      "anonymous": false,
      "inputs": [
        {
          "indexed": true,
          "internalType": "address",
          "name": "updater",
          "type": "address"
        }
      ],
      "name": "TaxRateUpdaterChanged",
      "type": "event"
    },
    {
      "anonymous": false,
      "inputs": [
        {
          "indexed": true,
          "internalType": "address",
          "name": "from",
          "type": "address"
        },
        {
          "indexed": true,
          "internalType": "address",
          "name": "to",
          "type": "address"
        },
        {
          "indexed": false,
          "internalType": "uint256",
          "name": "value",
          "type": "uint256"
        }
      ],
      "name": "Transfer",
      "type": "event"
    },
    {
      "inputs": [],
      "name": "BURN_ADDRESS",
      "outputs": [
        {
          "internalType": "address",
          "name": "",
          "type": "address"
        }
      ],
      "stateMutability": "view",
      "type": "function"
    },
    {
      "inputs": [],
      "name": "CLOCK_MODE",
      "outputs": [
        {
          "internalType": "string",
          "name": "",
          "type": "string"
        }
      ],
      "stateMutability": "view",
      "type": "function"
    },
    {
      "inputs": [],
      "name": "DOMAIN_SEPARATOR",
      "outputs": [
        {
          "internalType": "bytes32",
          "name": "",
          "type": "bytes32"
        }
      ],
      "stateMutability": "view",
      "type": "function"
    },
    {
      "inputs": [],
      "name": "FEE_PRECISION",
      "outputs": [
        {
          "internalType": "uint16",
          "name": "",
          "type": "uint16"
        }
      ],
      "stateMutability": "view",
      "type": "function"
    },
    {
      "inputs": [],
      "name": "MAX_COLLECTORS",
      "outputs": [
        {
          "internalType": "uint256",
          "name": "",
          "type": "uint256"
        }
      ],
      "stateMutability": "view",
      "type": "function"
    },
    {
      "inputs": [],
      "name": "MAX_FEE",
      "outputs": [
        {
          "internalType": "uint16",
          "name": "",
          "type": "uint16"
        }
      ],
      "stateMutability": "view",
      "type": "function"
    },
    {
      "inputs": [
        {
          "internalType": "address",
          "name": "account",
          "type": "address"
        },
        {
          "internalType": "uint256",
          "name": "share",
          "type": "uint256"
        }
      ],
      "name": "addFeeCollector",
      "outputs": [],
      "stateMutability": "nonpayable",
      "type": "function"
    },
    {
      "inputs": [
        {
          "internalType": "address",
          "name": "owner",
          "type": "address"
        },
        {
          "internalType": "address",
          "name": "spender",
          "type": "address"
        }
      ],
      "name": "allowance",
      "outputs": [
        {
          "internalType": "uint256",
          "name": "",
          "type": "uint256"
        }
      ],
      "stateMutability": "view",
      "type": "function"
    },
    {
      "inputs": [
        {
          "internalType": "address",
          "name": "spender",
          "type": "address"
        },
        {
          "internalType": "uint256",
          "name": "amount",
          "type": "uint256"
        }
      ],
      "name": "approve",
      "outputs": [
        {
          "internalType": "bool",
          "name": "",
          "type": "bool"
        }
      ],
      "stateMutability": "nonpayable",
      "type": "function"
    },
    {
      "inputs": [],
      "name": "autoProcessFees",
      "outputs": [
        {
          "internalType": "bool",
          "name": "",
          "type": "bool"
        }
      ],
      "stateMutability": "view",
      "type": "function"
    },
    {
      "inputs": [
        {
          "internalType": "address",
          "name": "account",
          "type": "address"
        }
      ],
      "name": "balanceOf",
      "outputs": [
        {
          "internalType": "uint256",
          "name": "",
          "type": "uint256"
        }
      ],
      "stateMutability": "view",
      "type": "function"
    },
    {
      "inputs": [
        {
          "internalType": "address",
          "name": "account",
          "type": "address"
        },
        {
          "internalType": "uint32",
          "name": "pos",
          "type": "uint32"
        }
      ],
      "name": "checkpoints",
      "outputs": [
        {
          "components": [
            {
              "internalType": "uint32",
              "name": "fromBlock",
              "type": "uint32"
            },
            {
              "internalType": "uint224",
              "name": "votes",
              "type": "uint224"
            }
          ],
          "internalType": "struct ERC20Votes.Checkpoint",
          "name": "",
          "type": "tuple"
        }
      ],
      "stateMutability": "view",
      "type": "function"
    },
    {
      "inputs": [],
      "name": "clock",
      "outputs": [
        {
          "internalType": "uint48",
          "name": "",
          "type": "uint48"
        }
      ],
      "stateMutability": "view",
      "type": "function"
    },
    {
      "inputs": [],
      "name": "decimals",
      "outputs": [
        {
          "internalType": "uint8",
          "name": "",
          "type": "uint8"
        }
      ],
      "stateMutability": "pure",
      "type": "function"
    },
    {
      "inputs": [
        {
          "internalType": "address",
          "name": "spender",
          "type": "address"
        },
        {
          "internalType": "uint256",
          "name": "subtractedValue",
          "type": "uint256"
        }
      ],
      "name": "decreaseAllowance",
      "outputs": [
        {
          "internalType": "bool",
          "name": "",
          "type": "bool"
        }
      ],
      "stateMutability": "nonpayable",
      "type": "function"
    },
    {
      "inputs": [
        {
          "internalType": "address",
          "name": "delegatee",
          "type": "address"
        }
      ],
      "name": "delegate",
      "outputs": [],
      "stateMutability": "nonpayable",
      "type": "function"
    },
    {
      "inputs": [
        {
          "internalType": "address",
          "name": "delegatee",
          "type": "address"
        },
        {
          "internalType": "uint256",
          "name": "nonce",
          "type": "uint256"
        },
        {
          "internalType": "uint256",
          "name": "expiry",
          "type": "uint256"
        },
        {
          "internalType": "uint8",
          "name": "v",
          "type": "uint8"
        },
        {
          "internalType": "bytes32",
          "name": "r",
          "type": "bytes32"
        },
        {
          "internalType": "bytes32",
          "name": "s",
          "type": "bytes32"
        }
      ],
      "name": "delegateBySig",
      "outputs": [],
      "stateMutability": "nonpayable",
      "type": "function"
    },
    {
      "inputs": [
        {
          "internalType": "address",
          "name": "account",
          "type": "address"
        }
      ],
      "name": "delegates",
      "outputs": [
        {
          "internalType": "address",
          "name": "",
          "type": "address"
        }
      ],
      "stateMutability": "view",
      "type": "function"
    },
    {
      "inputs": [
        {
          "internalType": "uint256",
          "name": "amount",
          "type": "uint256"
        },
        {
          "internalType": "bool",
          "name": "inToken",
          "type": "bool"
        }
      ],
      "name": "distributeFees",
      "outputs": [],
      "stateMutability": "nonpayable",
      "type": "function"
    },
    {
      "inputs": [],
      "name": "eip712Domain",
      "outputs": [
        {
          "internalType": "bytes1",
          "name": "fields",
          "type": "bytes1"
        },
        {
          "internalType": "string",
          "name": "name",
          "type": "string"
        },
        {
          "internalType": "string",
          "name": "version",
          "type": "string"
        },
        {
          "internalType": "uint256",
          "name": "chainId",
          "type": "uint256"
        },
        {
          "internalType": "address",
          "name": "verifyingContract",
          "type": "address"
        },
        {
          "internalType": "bytes32",
          "name": "salt",
          "type": "bytes32"
        },
        {
          "internalType": "uint256[]",
          "name": "extensions",
          "type": "uint256[]"
        }
      ],
      "stateMutability": "view",
      "type": "function"
    },
    {
      "inputs": [
        {
          "internalType": "address",
          "name": "account",
          "type": "address"
        }
      ],
      "name": "feeCollectorShare",
      "outputs": [
        {
          "internalType": "uint256",
          "name": "",
          "type": "uint256"
        }
      ],
      "stateMutability": "view",
      "type": "function"
    },
    {
      "inputs": [
        {
          "internalType": "uint256",
          "name": "startIndex",
          "type": "uint256"
        },
        {
          "internalType": "uint256",
          "name": "count",
          "type": "uint256"
        }
      ],
      "name": "feeCollectors",
      "outputs": [
        {
          "internalType": "address[]",
          "name": "",
          "type": "address[]"
        }
      ],
      "stateMutability": "view",
      "type": "function"
    },
    {
      "inputs": [],
      "name": "feeConfiguration",
      "outputs": [
        {
          "internalType": "bool",
          "name": "feesInToken",
          "type": "bool"
        },
        {
          "internalType": "uint16",
          "name": "buyFees",
          "type": "uint16"
        },
        {
          "internalType": "uint16",
          "name": "sellFees",
          "type": "uint16"
        },
        {
          "internalType": "uint16",
          "name": "transferFees",
          "type": "uint16"
        },
        {
          "internalType": "uint16",
          "name": "burnFeeRatio",
          "type": "uint16"
        },
        {
          "internalType": "uint16",
          "name": "liquidityFeeRatio",
          "type": "uint16"
        },
        {
          "internalType": "uint16",
          "name": "collectorsFeeRatio",
          "type": "uint16"
        }
      ],
      "stateMutability": "view",
      "type": "function"
    },
    {
      "inputs": [
        {
          "internalType": "uint256",
          "name": "timepoint",
          "type": "uint256"
        }
      ],
      "name": "getPastTotalSupply",
      "outputs": [
        {
          "internalType": "uint256",
          "name": "",
          "type": "uint256"
        }
      ],
      "stateMutability": "view",
      "type": "function"
    },
    {
      "inputs": [
        {
          "internalType": "address",
          "name": "account",
          "type": "address"
        },
        {
          "internalType": "uint256",
          "name": "timepoint",
          "type": "uint256"
        }
      ],
      "name": "getPastVotes",
      "outputs": [
        {
          "internalType": "uint256",
          "name": "",
          "type": "uint256"
        }
      ],
      "stateMutability": "view",
      "type": "function"
    },
    {
      "inputs": [
        {
          "internalType": "address",
          "name": "account",
          "type": "address"
        }
      ],
      "name": "getVotes",
      "outputs": [
        {
          "internalType": "uint256",
          "name": "",
          "type": "uint256"
        }
      ],
      "stateMutability": "view",
      "type": "function"
    },
    {
      "inputs": [
        {
          "internalType": "address",
          "name": "spender",
          "type": "address"
        },
        {
          "internalType": "uint256",
          "name": "addedValue",
          "type": "uint256"
        }
      ],
      "name": "increaseAllowance",
      "outputs": [
        {
          "internalType": "bool",
          "name": "",
          "type": "bool"
        }
      ],
      "stateMutability": "nonpayable",
      "type": "function"
    },
    {
      "inputs": [
        {
          "internalType": "address",
          "name": "account",
          "type": "address"
        }
      ],
      "name": "isExcludedFromFees",
      "outputs": [
        {
          "internalType": "bool",
          "name": "",
          "type": "bool"
        }
      ],
      "stateMutability": "view",
      "type": "function"
    },
    {
      "inputs": [
        {
          "internalType": "address",
          "name": "account",
          "type": "address"
        }
      ],
      "name": "isFeeCollector",
      "outputs": [
        {
          "internalType": "bool",
          "name": "",
          "type": "bool"
        }
      ],
      "stateMutability": "view",
      "type": "function"
    },
    {
      "inputs": [
        {
          "internalType": "address",
          "name": "pairAddress",
          "type": "address"
        }
      ],
      "name": "isLpPool",
      "outputs": [
        {
          "internalType": "bool",
          "name": "",
          "type": "bool"
        }
      ],
      "stateMutability": "view",
      "type": "function"
    },
    {
      "inputs": [],
      "name": "liquidityOwner",
      "outputs": [
        {
          "internalType": "address",
          "name": "",
          "type": "address"
        }
      ],
      "stateMutability": "view",
      "type": "function"
    },
    {
      "inputs": [],
      "name": "name",
      "outputs": [
        {
          "internalType": "string",
          "name": "",
          "type": "string"
        }
      ],
      "stateMutability": "view",
      "type": "function"
    },
    {
      "inputs": [
        {
          "internalType": "address",
          "name": "owner",
          "type": "address"
        }
      ],
      "name": "nonces",
      "outputs": [
        {
          "internalType": "uint256",
          "name": "",
          "type": "uint256"
        }
      ],
      "stateMutability": "view",
      "type": "function"
    },
    {
      "inputs": [
        {
          "internalType": "address",
          "name": "account",
          "type": "address"
        }
      ],
      "name": "numCheckpoints",
      "outputs": [
        {
          "internalType": "uint32",
          "name": "",
          "type": "uint32"
        }
      ],
      "stateMutability": "view",
      "type": "function"
    },
    {
      "inputs": [],
      "name": "numTokensToSwap",
      "outputs": [
        {
          "internalType": "uint256",
          "name": "",
          "type": "uint256"
        }
      ],
      "stateMutability": "view",
      "type": "function"
    },
    {
      "inputs": [],
      "name": "owner",
      "outputs": [
        {
          "internalType": "address",
          "name": "",
          "type": "address"
        }
      ],
      "stateMutability": "view",
      "type": "function"
    },
    {
      "inputs": [
        {
          "internalType": "address",
          "name": "owner",
          "type": "address"
        },
        {
          "internalType": "address",
          "name": "spender",
          "type": "address"
        },
        {
          "internalType": "uint256",
          "name": "value",
          "type": "uint256"
        },
        {
          "internalType": "uint256",
          "name": "deadline",
          "type": "uint256"
        },
        {
          "internalType": "uint8",
          "name": "v",
          "type": "uint8"
        },
        {
          "internalType": "bytes32",
          "name": "r",
          "type": "bytes32"
        },
        {
          "internalType": "bytes32",
          "name": "s",
          "type": "bytes32"
        }
      ],
      "name": "permit",
      "outputs": [],
      "stateMutability": "nonpayable",
      "type": "function"
    },
    {
      "inputs": [
        {
          "internalType": "uint256",
          "name": "amount",
          "type": "uint256"
        },
        {
          "internalType": "uint256",
          "name": "minAmountOut",
          "type": "uint256"
        }
      ],
      "name": "processFees",
      "outputs": [],
      "stateMutability": "nonpayable",
      "type": "function"
    },
    {
      "inputs": [
        {
          "internalType": "address",
          "name": "account",
          "type": "address"
        }
      ],
      "name": "removeFeeCollector",
      "outputs": [],
      "stateMutability": "nonpayable",
      "type": "function"
    },
    {
      "inputs": [],
      "name": "renounceOwnership",
      "outputs": [],
      "stateMutability": "nonpayable",
      "type": "function"
    },
    {
      "inputs": [
        {
          "internalType": "bool",
          "name": "autoProcess",
          "type": "bool"
        }
      ],
      "name": "setAutoprocessFees",
      "outputs": [],
      "stateMutability": "nonpayable",
      "type": "function"
    },
    {
      "inputs": [
        {
          "components": [
            {
              "internalType": "bool",
              "name": "feesInToken",
              "type": "bool"
            },
            {
              "internalType": "uint16",
              "name": "buyFees",
              "type": "uint16"
            },
            {
              "internalType": "uint16",
              "name": "sellFees",
              "type": "uint16"
            },
            {
              "internalType": "uint16",
              "name": "transferFees",
              "type": "uint16"
            },
            {
              "internalType": "uint16",
              "name": "burnFeeRatio",
              "type": "uint16"
            },
            {
              "internalType": "uint16",
              "name": "liquidityFeeRatio",
              "type": "uint16"
            },
            {
              "internalType": "uint16",
              "name": "collectorsFeeRatio",
              "type": "uint16"
            }
          ],
          "internalType": "struct TaxableToken.FeeConfiguration",
          "name": "configuration",
          "type": "tuple"
        }
      ],
      "name": "setFeeConfiguration",
      "outputs": [],
      "stateMutability": "nonpayable",
      "type": "function"
    },
    {
      "inputs": [
        {
          "internalType": "address",
          "name": "account",
          "type": "address"
        },
        {
          "internalType": "bool",
          "name": "excluded",
          "type": "bool"
        }
      ],
      "name": "setIsExcludedFromFees",
      "outputs": [],
      "stateMutability": "nonpayable",
      "type": "function"
    },
    {
      "inputs": [
        {
          "internalType": "address",
          "name": "pairAddress",
          "type": "address"
        },
        {
          "internalType": "bool",
          "name": "isLp",
          "type": "bool"
        }
      ],
      "name": "setIsLpPool",
      "outputs": [],
      "stateMutability": "nonpayable",
      "type": "function"
    },
    {
      "inputs": [
        {
          "internalType": "address",
          "name": "newOwner",
          "type": "address"
        }
      ],
      "name": "setLiquidityOwner",
      "outputs": [],
      "stateMutability": "nonpayable",
      "type": "function"
    },
    {
      "inputs": [
        {
          "internalType": "uint256",
          "name": "amount",
          "type": "uint256"
        }
      ],
      "name": "setNumTokensToSwap",
      "outputs": [],
      "stateMutability": "nonpayable",
      "type": "function"
    },
    {
      "inputs": [
        {
          "internalType": "address",
          "name": "newRouter",
          "type": "address"
        }
      ],
      "name": "setSwapRouter",
      "outputs": [],
      "stateMutability": "nonpayable",
      "type": "function"
    },
    {
      "inputs": [
        {
          "internalType": "address",
          "name": "updater",
          "type": "address"
        }
      ],
      "name": "setTaxRateUpdater",
      "outputs": [],
      "stateMutability": "nonpayable",
      "type": "function"
    },
    {
      "inputs": [
        {
          "internalType": "uint256",
          "name": "buyRate",
          "type": "uint256"
        },
        {
          "internalType": "uint256",
          "name": "sellRate",
          "type": "uint256"
        }
      ],
      "name": "setTaxRates",
      "outputs": [],
      "stateMutability": "nonpayable",
      "type": "function"
    },
    {
      "inputs": [],
      "name": "swapPair",
      "outputs": [
        {
          "internalType": "address",
          "name": "",
          "type": "address"
        }
      ],
      "stateMutability": "view",
      "type": "function"
    },
    {
      "inputs": [],
      "name": "swapRouter",
      "outputs": [
        {
          "internalType": "contract IUniswapV2Router02",
          "name": "",
          "type": "address"
        }
      ],
      "stateMutability": "view",
      "type": "function"
    },
    {
      "inputs": [],
      "name": "symbol",
      "outputs": [
        {
          "internalType": "string",
          "name": "",
          "type": "string"
        }
      ],
      "stateMutability": "view",
      "type": "function"
    },
    {
      "inputs": [],
      "name": "taxRateUpdater",
      "outputs": [
        {
          "internalType": "address",
          "name": "",
          "type": "address"
        }
      ],
      "stateMutability": "view",
      "type": "function"
    },
    {
      "inputs": [],
      "name": "totalFeeCollectorsShares",
      "outputs": [
        {
          "internalType": "uint256",
          "name": "",
          "type": "uint256"
        }
      ],
      "stateMutability": "view",
      "type": "function"
    },
    {
      "inputs": [],
      "name": "totalSupply",
      "outputs": [
        {
          "internalType": "uint256",
          "name": "",
          "type": "uint256"
        }
      ],
      "stateMutability": "view",
      "type": "function"
    },
    {
      "inputs": [
        {
          "internalType": "address",
          "name": "to",
          "type": "address"
        },
        {
          "internalType": "uint256",
          "name": "amount",
          "type": "uint256"
        }
      ],
      "name": "transfer",
      "outputs": [
        {
          "internalType": "bool",
          "name": "",
          "type": "bool"
        }
      ],
      "stateMutability": "nonpayable",
      "type": "function"
    },
    {
      "inputs": [
        {
          "internalType": "address",
          "name": "from",
          "type": "address"
        },
        {
          "internalType": "address",
          "name": "to",
          "type": "address"
        },
        {
          "internalType": "uint256",
          "name": "amount",
          "type": "uint256"
        }
      ],
      "name": "transferFrom",
      "outputs": [
        {
          "internalType": "bool",
          "name": "",
          "type": "bool"
        }
      ],
      "stateMutability": "nonpayable",
      "type": "function"
    },
    {
      "inputs": [
        {
          "internalType": "address",
          "name": "newOwner",
          "type": "address"
        }
      ],
      "name": "transferOwnership",
      "outputs": [],
      "stateMutability": "nonpayable",
      "type": "function"
    },
    {
      "inputs": [
        {
          "internalType": "address",
          "name": "account",
          "type": "address"
        },
        {
          "internalType": "uint256",
          "name": "share",
          "type": "uint256"
        }
      ],
      "name": "updateFeeCollectorShare",
      "outputs": [],
      "stateMutability": "nonpayable",
      "type": "function"
    },
    {
      "stateMutability": "payable",
      "type": "receive"
    }
  ],
  "transactionHash": "0xbfec428580d196e0a524dc4eb47b81676884bb2daaa72ae794931fccbea44b4c",
  "args": [
    "1000000000000000000",
    "0xf8492AfeDC885ef3d443F0f51B81B7e70fBCd516",
    "0x1689E7B1F10000AE47eBfE339a4f69dECd19F602",
    [
      "0xBe94738C517E3f71475EF68AD62215c38949cA58"
    ],
    [
      100
    ]
  ],
  "numDeployments": 2,
  "solcInputHash": "8a4f155ca285c8448eac131347cea9e7",
  "bytecode": "0x610160604052604051615b82380380615b8283398101604081905261002391611355565b600161003161271087611460565b6040805160e08101825260018082526101f4602080840182905283850191909152600060608401819052608084015261138860a0840181905260c084015283518085018552600680825265213ab9ba32b960d11b82840181905286518088018852948552603160f81b858501528651808801885291825281840152855180870190965260048652632129aa2960e11b92860192909252899489938993839260036100db838261150a565b5060046100e8828261150a565b506100f8915083905060056105ac565b610120526101078160066105ac565b61014052815160208084019190912060e052815190820120610100524660a05261019460e05161010051604080517f8b73c3c69bb8fe3d512ecc4cf759cc79239f7b179b0ffacaa9a75d522b39400f60208201529081019290925260608201524660808201523060a082015260009060c00160405160208183030381529060405280519060200120905090565b60805250503060c052506001600c5580518251146101ec5760405162461bcd60e51b815260206004820152601060248201526f135a5cdb585d18da1959081a5b9c1d5d60821b60448201526064015b60405180910390fd5b6032825111156102345760405162461bcd60e51b8152602060048201526013602482015272546f6f206d616e7920636f6c6c6563746f727360681b60448201526064016101e3565b60005b825181101561028a57610282838281518110610255576102556115c8565b602002602001015183838151811061026f5761026f6115c8565b60200260200101516105df60201b60201c565b600101610237565b50505060148390556013805460ff60a81b1916600160a81b861515021790556102b03390565b601380546001600160a01b039283166001600160a01b0319918216179091556011805492851692909116821790556040805163c45a015560e01b815290516103b3929163c45a01559160048083019260209291908290030181865afa15801561031d573d6000803e3d6000fd5b505050506040513d601f19601f8201168201806040525081019061034191906115de565b601154604080516315ab88c960e31b8152905130926001600160a01b03169163ad5c46489160048083019260209291908290030181865afa15801561038a573d6000803e3d6000fd5b505050506040513d601f19601f820116820180604052508101906103ae91906115de565b610749565b601280546001600160a01b0319166001600160a01b039290921691821790556000908152601760205260408120805460ff191660019081179091556103f89190610849565b61040561dead6001610849565b610410306001610849565b61041b336001610849565b610424816108ff565b5050505061043e61043961074560201b60201c565b610b81565b6000851161048e5760405162461bcd60e51b815260206004820152601d60248201527f496e697469616c20737570706c792063616e6e6f74206265207a65726f00000060448201526064016101e3565b6032825111156104d65760405162461bcd60e51b8152602060048201526013602482015272546f6f206d616e7920636f6c6c6563746f727360681b60448201526064016101e3565b6000846001600160a01b03163460405160006040518083038185875af1925050503d8060008114610523576040519150601f19603f3d011682016040523d82523d6000602084013e610528565b606091505b50509050806105845760405162461bcd60e51b815260206004820152602260248201527f455448207472616e7366657220746f206665655265636569766572206661696c604482015261195960f21b60648201526084016101e3565b61058e3387610bd3565b5050601980546001600160a01b031916331790555061172392505050565b60006020835110156105c8576105c183610be1565b90506105d9565b816105d3848261150a565b5060ff90505b92915050565b6105ea600d83610c1f565b1561062b5760405162461bcd60e51b815260206004820152601160248201527020b63932b0b23c9031b7b63632b1ba37b960791b60448201526064016101e3565b6032610637600d610c44565b106106845760405162461bcd60e51b815260206004820152601660248201527f4d617820636f6c6c6563746f727320726561636865640000000000000000000060448201526064016101e3565b600081116106c45760405162461bcd60e51b815260206004820152600d60248201526c496e76616c696420736861726560981b60448201526064016101e3565b6106cf600d83610c4e565b506001600160a01b0382166000908152600f60205260408120829055601080548392906106fd9084906115f9565b90915550506040518181526001600160a01b038316907f918584c21fe4a093f5014c0dabaed3e43b642781e27984aef122cae8245fbb23906020015b60405180910390a25050565b3390565b6000806000836001600160a01b0316856001600160a01b03161061076e578385610771565b84845b6040516001600160601b0319606084811b8216602084015283901b16603482015291935091508690604801604051602081830303815290604052805190602001206040516020016108279291907fff00000000000000000000000000000000000000000000000000000000000000815260609290921b6001600160601b031916600183015260158201527f96e8ac4277198ff8b6f785478aa9a39f403cb768dd02cbee326c3e7da348845f603582015260550190565b60408051601f1981840301815291905280516020909101209695505050505050565b6001600160a01b03821660009081526016602052604090205481151560ff9091161515036108a75760405162461bcd60e51b815260206004820152600b60248201526a105b1c9958591e481cd95d60aa1b60448201526064016101e3565b6001600160a01b038216600081815260166020908152604091829020805460ff191685151590811790915591519182527f3499bfcf9673677ba552f3fe2ea274ec7e6246da31c3c87e115b45a9b0db2efb9101610739565b6107d061ffff16816020015161ffff16111561094f5760405162461bcd60e51b815260206004820152600f60248201526e496e76616c6964206275792066656560881b60448201526064016101e3565b6107d061ffff16816040015161ffff1611156109a05760405162461bcd60e51b815260206004820152601060248201526f496e76616c69642073656c6c2066656560801b60448201526064016101e3565b6107d061ffff16816060015161ffff1611156109fe5760405162461bcd60e51b815260206004820152601460248201527f496e76616c6964207472616e736665722066656500000000000000000000000060448201526064016101e3565b60008160c001518260a001518360800151610a19919061160c565b610a23919061160c565b905061ffff81161580610a3b575061ffff8116612710145b610a7b5760405162461bcd60e51b8152602060048201526011602482015270496e76616c69642066656520736861726560781b60448201526064016101e3565b81516015805460208501516040808701516060880151608089015160a08a015160c08b015162ffffff1990971698151562ffff0019169890981761010061ffff968716021766ffffffff000000191663010000009386169390930261ffff60281b19169290921765010000000000918516919091021763ffffffff60381b19166701000000000000009184169190910261ffff60481b1916176901000000000000000000958316959095029490941761ffff60581b19166b0100000000000000000000009190921602179055517ff34b49a91d91598b7774795175736ebf4db4fa5a4edf72772cf50fb27c135efd90610b75908490611626565b60405180910390a15050565b601880546001600160a01b038381166001600160a01b0319831681179093556040519116919082907f8be0079c531659141344cd1fd0a4f28419497f9722a3daafe3b4186f6b6457e090600090a35050565b610bdd8282610c63565b5050565b600080829050601f81511115610c0c578260405163305a27a960e01b81526004016101e3919061169e565b8051610c17826116ec565b179392505050565b6001600160a01b038116600090815260018301602052604081205415155b9392505050565b60006105d9825490565b6000610c3d836001600160a01b038416610d01565b610c6d8282610d50565b6001600160e01b03610c7f610e178216565b1115610ce65760405162461bcd60e51b815260206004820152603060248201527f4552433230566f7465733a20746f74616c20737570706c79207269736b73206f60448201526f766572666c6f77696e6720766f74657360801b60648201526084016101e3565b610cfb600b6119b5610e1d60201b1783610e29565b50505050565b6000818152600183016020526040812054610d48575081546001818101845560008481526020808220909301849055845484825282860190935260409020919091556105d9565b5060006105d9565b6001600160a01b038216610da65760405162461bcd60e51b815260206004820152601f60248201527f45524332303a206d696e7420746f20746865207a65726f20616464726573730060448201526064016101e3565b8060026000828254610db891906115f9565b90915550506001600160a01b038216600081815260208181526040808320805486019055518481527fddf252ad1be2c89b69c2b068fc378daa952ba7f163c4a11628f55a4df523b3ef910160405180910390a3610bdd60008383610fa6565b60025490565b6000610c3d82846115f9565b82546000908190818115610e765760008781526020902082016000190160408051808201909152905463ffffffff8116825264010000000090046001600160e01b03166020820152610e8b565b60408051808201909152600080825260208201525b905080602001516001600160e01b03169350610ea884868860201c565b9250600082118015610ed25750610ebd610fb1565b65ffffffffffff16816000015163ffffffff16145b15610f1757610ee083610fc1565b60008881526020902083016000190180546001600160e01b03929092166401000000000263ffffffff909216919091179055610f97565b866040518060400160405280610f41610f34610fb160201b60201c565b65ffffffffffff1661102e565b63ffffffff168152602001610f5586610fc1565b6001600160e01b0390811690915282546001810184556000938452602093849020835194909301519091166401000000000263ffffffff909316929092179101555b5050935093915050565b505050565b610fa1838383611093565b6000610fbc436110c5565b905090565b60006001600160e01b0382111561102a5760405162461bcd60e51b815260206004820152602760248201527f53616665436173743a2076616c756520646f65736e27742066697420696e20326044820152663234206269747360c81b60648201526084016101e3565b5090565b600063ffffffff82111561102a5760405162461bcd60e51b815260206004820152602660248201527f53616665436173743a2076616c756520646f65736e27742066697420696e203360448201526532206269747360d01b60648201526084016101e3565b6001600160a01b03838116600090815260096020526040808220548584168352912054610fa19291821691168361112c565b600065ffffffffffff82111561102a5760405162461bcd60e51b815260206004820152602660248201527f53616665436173743a2076616c756520646f65736e27742066697420696e203460448201526538206269747360d01b60648201526084016101e3565b816001600160a01b0316836001600160a01b03161415801561114e5750600081115b15610fa1576001600160a01b038316156111d3576001600160a01b0383166000908152600a60209081526040822082916111929190611257901b6119c11785610e29565b91509150846001600160a01b0316600080516020615b6283398151915283836040516111c8929190918252602082015260400190565b60405180910390a250505b6001600160a01b03821615610fa1576001600160a01b0382166000908152600a60209081526040822082916112129190610e1d901b6119b51785610e29565b91509150836001600160a01b0316600080516020615b628339815191528383604051611248929190918252602082015260400190565b60405180910390a25050505050565b6000610c3d8284611710565b80516001600160a01b038116811461127a57600080fd5b919050565b634e487b7160e01b600052604160045260246000fd5b604051601f8201601f191681016001600160401b03811182821017156112bd576112bd61127f565b604052919050565b60006001600160401b038211156112de576112de61127f565b5060051b60200190565b600082601f8301126112f957600080fd5b815161130c611307826112c5565b611295565b8082825260208201915060208360051b86010192508583111561132e57600080fd5b602085015b8381101561134b578051835260209283019201611333565b5095945050505050565b600080600080600060a0868803121561136d57600080fd5b8551945061137d60208701611263565b935061138b60408701611263565b60608701519093506001600160401b038111156113a757600080fd5b8601601f810188136113b857600080fd5b80516113c6611307826112c5565b8082825260208201915060208360051b85010192508a8311156113e857600080fd5b6020840193505b828410156114115761140084611263565b8252602093840193909101906113ef565b60808a0151909550925050506001600160401b0381111561143157600080fd5b61143d888289016112e8565b9150509295509295909350565b634e487b7160e01b600052601160045260246000fd5b60008261147d57634e487b7160e01b600052601260045260246000fd5b500490565b600181811c9082168061149657607f821691505b6020821081036114b657634e487b7160e01b600052602260045260246000fd5b50919050565b601f821115610fa157806000526020600020601f840160051c810160208510156114e35750805b601f840160051c820191505b8181101561150357600081556001016114ef565b5050505050565b81516001600160401b038111156115235761152361127f565b611537816115318454611482565b846114bc565b6020601f82116001811461156b57600083156115535750848201515b600019600385901b1c1916600184901b178455611503565b600084815260208120601f198516915b8281101561159b578785015182556020948501946001909201910161157b565b50848210156115b95786840151600019600387901b60f8161c191681555b50505050600190811b01905550565b634e487b7160e01b600052603260045260246000fd5b6000602082840312156115f057600080fd5b610c3d82611263565b808201808211156105d9576105d961144a565b61ffff81811683821601908111156105d9576105d961144a565b600060e08201905082511515825261ffff602084015116602083015261ffff604084015116604083015261ffff606084015116606083015261ffff608084015116608083015260a083015161168160a084018261ffff169052565b5060c083015161169760c084018261ffff169052565b5092915050565b602081526000825180602084015260005b818110156116cc57602081860181015160408684010152016116af565b506000604082850101526040601f19601f83011684010191505092915050565b805160208083015191908110156114b65760001960209190910360031b1b16919050565b818103818111156105d9576105d961144a565b60805160a05160c05160e0516101005161012051610140516143e561177d600039600061136001526000611335015260006122500152600061222801526000612183015260006121ad015260006121d701526143e56000f3fe6080604052600436106103905760003560e01c8063715018a6116101dc578063a9059cbb11610102578063dd62ed3e116100a0578063f1127ed81161006f578063f1127ed814610b87578063f2fde38b14610bd1578063f4232d2514610bf1578063fccc281314610c1157600080fd5b8063dd62ed3e14610b11578063dfdc62d614610b31578063e55096b014610b51578063e63a391f14610b7157600080fd5b8063bc063e1a116100dc578063bc063e1a14610a88578063c31c9c0714610ab1578063c3cda52014610ad1578063d505accf14610af157600080fd5b8063a9059cbb14610a32578063adf1869314610a52578063b3c6e9ee14610a7257600080fd5b806391ddadf41161017a5780639ab24eb0116101495780639ab24eb0146109b15780639b61f1d0146109d15780639e70103d146109f2578063a457c2d714610a1257600080fd5b806391ddadf41461089f57806394b8a703146108cb57806395d89b411461090157806398c47e8c1461091657600080fd5b80637f5bbb2c116101b65780637f5bbb2c1461081957806384b0196e146108395780638da5cb5b146108615780638e539e8c1461087f57600080fd5b8063715018a6146107c457806372bc5583146107d95780637ecebe00146107f957600080fd5b806339509351116102c15780634bf5d7e91161025f5780635cb23e121161022e5780635cb23e12146107005780636f741f2a146107205780636fcfff451461075957806370a082311461078e57600080fd5b80634bf5d7e9146106595780634fbee1931461066e578063587cde1e146106a75780635c19a95c146106e057600080fd5b80633bed93f21161029b5780633bed93f2146105e457806341273657146105f95780634569c44514610619578063490e51471461063957600080fd5b806339509351146105845780633a46b1a8146105a45780633b90b9bf146105c457600080fd5b806323b872dd1161032e578063313ce56711610308578063313ce567146105135780633502628a1461052f5780633644e5151461054f5780633935ebf91461056457600080fd5b806323b872dd1461048e57806326991cc8146104ae5780632b46c6a4146104e657600080fd5b80630a4e42ef1161036a5780630a4e42ef146104175780630f569dad1461043957806318160ddd146104595780631fa67b4d1461046e57600080fd5b806301a6c43b1461039c57806306fdde03146103c5578063095ea7b3146103e757600080fd5b3661039757005b600080fd5b3480156103a857600080fd5b506103b260145481565b6040519081526020015b60405180910390f35b3480156103d157600080fd5b506103da610c27565b6040516103bc9190613c29565b3480156103f357600080fd5b50610407610402366004613c51565b610cb9565b60405190151581526020016103bc565b34801561042357600080fd5b50610437610432366004613c7d565b610cd3565b005b34801561044557600080fd5b50610437610454366004613c9f565b610d51565b34801561046557600080fd5b506002546103b2565b34801561047a57600080fd5b50610437610489366004613cb8565b610d73565b34801561049a57600080fd5b506104076104a9366004613cd5565b610d96565b3480156104ba57600080fd5b506012546104ce906001600160a01b031681565b6040516001600160a01b0390911681526020016103bc565b3480156104f257600080fd5b50610506610501366004613c7d565b610dbc565b6040516103bc9190613d5b565b34801561051f57600080fd5b50604051600981526020016103bc565b34801561053b57600080fd5b5061043761054a366004613c51565b610e95565b34801561055b57600080fd5b506103b2610eaf565b34801561057057600080fd5b506013546104ce906001600160a01b031681565b34801561059057600080fd5b5061040761059f366004613c51565b610ebe565b3480156105b057600080fd5b506103b26105bf366004613c51565b610ee0565b3480156105d057600080fd5b506104076105df366004613cb8565b610f5e565b3480156105f057600080fd5b506103b2603281565b34801561060557600080fd5b50610437610614366004613cb8565b610f6b565b34801561062557600080fd5b50610437610634366004613d83565b610f84565b34801561064557600080fd5b50610437610654366004613daf565b61105d565b34801561066557600080fd5b506103da611084565b34801561067a57600080fd5b50610407610689366004613cb8565b6001600160a01b031660009081526016602052604090205460ff1690565b3480156106b357600080fd5b506104ce6106c2366004613cb8565b6001600160a01b039081166000908152600960205260409020541690565b3480156106ec57600080fd5b506104376106fb366004613cb8565b61111c565b34801561070c57600080fd5b5061043761071b366004613c7d565b611126565b34801561072c57600080fd5b5061040761073b366004613cb8565b6001600160a01b031660009081526017602052604090205460ff1690565b34801561076557600080fd5b50610779610774366004613cb8565b61123f565b60405163ffffffff90911681526020016103bc565b34801561079a57600080fd5b506103b26107a9366004613cb8565b6001600160a01b031660009081526020819052604090205490565b3480156107d057600080fd5b50610437611261565b3480156107e557600080fd5b506104376107f4366004613cb8565b611275565b34801561080557600080fd5b506103b2610814366004613cb8565b6112a8565b34801561082557600080fd5b50610437610834366004613dca565b6112c6565b34801561084557600080fd5b5061084e611327565b6040516103bc9796959493929190613de5565b34801561086d57600080fd5b506018546001600160a01b03166104ce565b34801561088b57600080fd5b506103b261089a366004613c9f565b6113b0565b3480156108ab57600080fd5b506108b4611417565b60405165ffffffffffff90911681526020016103bc565b3480156108d757600080fd5b506103b26108e6366004613cb8565b6001600160a01b03166000908152600f602052604090205490565b34801561090d57600080fd5b506103da611422565b34801561092257600080fd5b5060155461096f9060ff81169061ffff610100820481169163010000008104821691650100000000008204811691600160381b8104821691600160481b8204811691600160581b90041687565b60408051971515885261ffff968716602089015294861694870194909452918416606086015283166080850152821660a08401521660c082015260e0016103bc565b3480156109bd57600080fd5b506103b26109cc366004613cb8565b611431565b3480156109dd57600080fd5b5060135461040790600160a81b900460ff1681565b3480156109fe57600080fd5b506019546104ce906001600160a01b031681565b348015610a1e57600080fd5b50610407610a2d366004613c51565b6114b3565b348015610a3e57600080fd5b50610407610a4d366004613c51565b611539565b348015610a5e57600080fd5b50610437610a6d366004613e7d565b611547565b348015610a7e57600080fd5b506103b260105481565b348015610a9457600080fd5b50610a9e6107d081565b60405161ffff90911681526020016103bc565b348015610abd57600080fd5b506011546104ce906001600160a01b031681565b348015610add57600080fd5b50610437610aec366004613eba565b611561565b348015610afd57600080fd5b50610437610b0c366004613f14565b611697565b348015610b1d57600080fd5b506103b2610b2c366004613f83565b6117fb565b348015610b3d57600080fd5b50610437610b4c366004613cb8565b611826565b348015610b5d57600080fd5b50610437610b6c366004613e7d565b611887565b348015610b7d57600080fd5b50610a9e61271081565b348015610b9357600080fd5b50610ba7610ba2366004613fbc565b6118a1565b60408051825163ffffffff1681526020928301516001600160e01b031692810192909252016103bc565b348015610bdd57600080fd5b50610437610bec366004613cb8565b611925565b348015610bfd57600080fd5b50610437610c0c366004613c51565b61199b565b348015610c1d57600080fd5b506104ce61dead81565b606060038054610c3690613ff3565b80601f0160208091040260200160405190810160405280929190818152602001828054610c6290613ff3565b8015610caf5780601f10610c8457610100808354040283529160200191610caf565b820191906000526020600020905b815481529060010190602001808311610c9257829003601f168201915b5050505050905090565b600033610cc78185856119cd565b60019150505b92915050565b610cdb611af1565b610ce3611b4b565b30600090815260208190526040902054821115610d395760405162461bcd60e51b815260206004820152600f60248201526e082dadeeadce840e8dede40d0d2ced608b1b60448201526064015b60405180910390fd5b610d438282611ba4565b610d4d6001600c55565b5050565b610d59611af1565b610d61611b4b565b6014819055610d706001600c55565b50565b610d7b611af1565b610d83611b4b565b610d8c81611d13565b610d706001600c55565b600033610da4858285611ddd565b610daf858585611e57565b60019150505b9392505050565b60608183610dca600d612001565b610dd4919061403d565b811115610df35783610de6600d612001565b610df0919061403d565b90505b60008167ffffffffffffffff811115610e0e57610e0e614050565b604051908082528060200260200182016040528015610e37578160200160208202803683370190505b50905060005b82811015610e8c57610e5a610e528288614066565b600d9061200b565b828281518110610e6c57610e6c614079565b6001600160a01b0390921660209283029190910190910152600101610e3d565b50949350505050565b610e9d611af1565b610ea5611b4b565b610d438282612017565b6000610eb9612176565b905090565b600033610cc7818585610ed183836117fb565b610edb9190614066565b6119cd565b6000610eea611417565b65ffffffffffff168210610f3c5760405162461bcd60e51b815260206004820152601960248201527804552433230566f7465733a20667574757265206c6f6f6b757603c1b6044820152606401610d30565b6001600160a01b0383166000908152600a60205260409020610db590836122a1565b6000610ccd600d8361238a565b610f73611af1565b610f7b611b4b565b610d8c816123ac565b610f8c611af1565b610f94611b4b565b8015610ffe5730600090815260208190526040902054821115610ff95760405162461bcd60e51b815260206004820152601860248201527f4e6f7420656e6f75676820746f6b656e2062616c616e636500000000000000006044820152606401610d30565b611047565b814710156110475760405162461bcd60e51b81526020600482015260166024820152754e6f7420656e6f756768204554482062616c616e636560501b6044820152606401610d30565b6110523083836126e9565b50610d4d6001600c55565b611065611af1565b61106d611b4b565b610d8c61107f368390038301836140a1565b61291d565b60604361108f611417565b65ffffffffffff16146110e45760405162461bcd60e51b815260206004820152601d60248201527f4552433230566f7465733a2062726f6b656e20636c6f636b206d6f64650000006044820152606401610d30565b5060408051808201909152601d81527f6d6f64653d626c6f636b6e756d6265722666726f6d3d64656661756c74000000602082015290565b610d703382612b90565b6019546001600160a01b031633146111755760405162461bcd60e51b81526020600482015260126024820152712737ba103a30bc2930ba32aab83230ba32b960711b6044820152606401610d30565b61117d611b4b565b6107d0821180159061119157506107d08111155b6111cc5760405162461bcd60e51b815260206004820152600c60248201526b0a8c2f040e8dede40d0d2ced60a31b6044820152606401610d30565b6015805461ffff83811663010000000264ffff00000019918616610100029190911664ffffffff0019909216919091171781556040517ff34b49a91d91598b7774795175736ebf4db4fa5a4edf72772cf50fb27c135efd9161122d91614161565b60405180910390a1610d4d6001600c55565b6001600160a01b0381166000908152600a6020526040812054610ccd90612c09565b611269611af1565b6112736000612c72565b565b61127d611af1565b611285611b4b565b601380546001600160a01b0319166001600160a01b0383161790556001600c5550565b6001600160a01b038116600090815260076020526040812054610ccd565b6112ce611af1565b6112d6611b4b565b801515601360159054906101000a900460ff161515036113085760405162461bcd60e51b8152600401610d30906141c7565b6013805460ff60a81b1916600160a81b831515021790556001600c5550565b60006060808280808361135b7f00000000000000000000000000000000000000000000000000000000000000006005612cc4565b6113867f00000000000000000000000000000000000000000000000000000000000000006006612cc4565b60408051600080825260208201909252600f60f81b9b939a50919850469750309650945092509050565b60006113ba611417565b65ffffffffffff16821061140c5760405162461bcd60e51b815260206004820152601960248201527804552433230566f7465733a20667574757265206c6f6f6b757603c1b6044820152606401610d30565b610ccd600b836122a1565b6000610eb943612d6f565b606060048054610c3690613ff3565b6001600160a01b0381166000908152600a602052604081205480156114a0576001600160a01b0383166000908152600a602052604090208054600019830190811061147e5761147e614079565b60009182526020909120015464010000000090046001600160e01b03166114a3565b60005b6001600160e01b03169392505050565b600033816114c182866117fb565b9050838110156115215760405162461bcd60e51b815260206004820152602560248201527f45524332303a2064656372656173656420616c6c6f77616e63652062656c6f77604482015264207a65726f60d81b6064820152608401610d30565b61152e82868684036119cd565b506001949350505050565b600033610cc7818585611e57565b61154f611af1565b611557611b4b565b610d438282612dd6565b834211156115b15760405162461bcd60e51b815260206004820152601d60248201527f4552433230566f7465733a207369676e617475726520657870697265640000006044820152606401610d30565b604080517fe48329057bfd03d55e49b547132e39cffd9c1820ad7b9d4c5307691425d15adf60208201526001600160a01b03881691810191909152606081018690526080810185905260009061162b906116239060a00160405160208183030381529060405280519060200120612e6e565b858585612e9b565b905061163681612ec3565b86146116845760405162461bcd60e51b815260206004820152601960248201527f4552433230566f7465733a20696e76616c6964206e6f6e6365000000000000006044820152606401610d30565b61168e8188612b90565b50505050505050565b834211156116e75760405162461bcd60e51b815260206004820152601d60248201527f45524332305065726d69743a206578706972656420646561646c696e650000006044820152606401610d30565b60007f6e71edae12b1b97f4d1f60370fef10105fa2faae0126114a169c64845d6126c98888886117168c612ec3565b6040805160208101969096526001600160a01b0394851690860152929091166060840152608083015260a082015260c0810186905260e001604051602081830303815290604052805190602001209050600061177182612e6e565b9050600061178182878787612e9b565b9050896001600160a01b0316816001600160a01b0316146117e45760405162461bcd60e51b815260206004820152601e60248201527f45524332305065726d69743a20696e76616c6964207369676e617475726500006044820152606401610d30565b6117ef8a8a8a6119cd565b50505050505050505050565b6001600160a01b03918216600090815260016020908152604080832093909416825291909152205490565b61182e611af1565b611836611b4b565b601980546001600160a01b0319166001600160a01b0383169081179091556040517f9303ecbbfa9686993e20c6f50ad460bbf48268e45fab9bb5090bd6160f83217590600090a2610d706001600c55565b61188f611af1565b611897611b4b565b610d438282612eeb565b60408051808201909152600080825260208201526001600160a01b0383166000908152600a60205260409020805463ffffffff84169081106118e5576118e5614079565b60009182526020918290206040805180820190915291015463ffffffff8116825264010000000090046001600160e01b0316918101919091529392505050565b61192d611af1565b6001600160a01b0381166119925760405162461bcd60e51b815260206004820152602660248201527f4f776e61626c653a206e6577206f776e657220697320746865207a65726f206160448201526564647265737360d01b6064820152608401610d30565b610d7081612c72565b6119a3611af1565b6119ab611b4b565b610d438282612f83565b6000610db58284614066565b6000610db5828461403d565b6001600160a01b038316611a2f5760405162461bcd60e51b8152602060048201526024808201527f45524332303a20617070726f76652066726f6d20746865207a65726f206164646044820152637265737360e01b6064820152608401610d30565b6001600160a01b038216611a905760405162461bcd60e51b815260206004820152602260248201527f45524332303a20617070726f766520746f20746865207a65726f206164647265604482015261737360f01b6064820152608401610d30565b6001600160a01b0383811660008181526001602090815260408083209487168084529482529182902085905590518481527f8c5be1e5ebec7d5bd14f71427d1e84f3dd0314c0f7b2291e5b200ac8c7c3b925910160405180910390a3505050565b6018546001600160a01b031633146112735760405162461bcd60e51b815260206004820181905260248201527f4f776e61626c653a2063616c6c6572206973206e6f7420746865206f776e65726044820152606401610d30565b6002600c5403611b9d5760405162461bcd60e51b815260206004820152601f60248201527f5265656e7472616e637947756172643a207265656e7472616e742063616c6c006044820152606401610d30565b6002600c55565b6013805460ff60a01b1916600160a01b179055306000908152602081905260408120549050828110611d0057601554600090611bed90600160381b900461ffff166127106141ec565b60155461ffff91821691611c0991600160481b90041686614206565b611c139190614233565b90506000611c22600283614233565b90506000611c30838761403d565b90506000611c3e838561403d565b60155490915060ff16611c5857611c558282614066565b90505b8015611cd0576012546001600160a01b0316600090815260208190526040902054600003611c8a575050505050611d02565b47611c9582886130b8565b6000611ca1824761403d565b9050600083611cb08784614206565b611cba9190614233565b90508015611ccc57611ccc8682613209565b5050505b60155460ff1615611ced57611ce7308360016126e9565b50611cfb565b611cf9304760006126e9565b505b505050505b505b50506013805460ff60a01b19169055565b611d1e600d8261238a565b611d5c5760405162461bcd60e51b815260206004820152600f60248201526e2737ba10309031b7b63632b1ba37b960891b6044820152606401610d30565b611d67600d826132bd565b506001600160a01b0381166000908152600f60205260408120546010805491929091611d9490849061403d565b90915550506001600160a01b0381166000818152600f6020526040808220829055517f904316769e154356a5e4aad5d41591b55913c7717fab281d818c1fed7d80e8149190a250565b6000611de984846117fb565b90506000198114611e515781811015611e445760405162461bcd60e51b815260206004820152601d60248201527f45524332303a20696e73756666696369656e7420616c6c6f77616e63650000006044820152606401610d30565b611e5184848484036119cd565b50505050565b6001600160a01b038316611ebb5760405162461bcd60e51b815260206004820152602560248201527f45524332303a207472616e736665722066726f6d20746865207a65726f206164604482015264647265737360d81b6064820152608401610d30565b6001600160a01b038216611f1d5760405162461bcd60e51b815260206004820152602360248201527f45524332303a207472616e7366657220746f20746865207a65726f206164647260448201526265737360e81b6064820152608401610d30565b6001600160a01b03831660009081526020819052604090205481811015611f955760405162461bcd60e51b815260206004820152602660248201527f45524332303a207472616e7366657220616d6f756e7420657863656564732062604482015265616c616e636560d01b6064820152608401610d30565b6001600160a01b03848116600081815260208181526040808320878703905593871680835291849020805487019055925185815290927fddf252ad1be2c89b69c2b068fc378daa952ba7f163c4a11628f55a4df523b3ef910160405180910390a3611e518484846132d7565b6000610ccd825490565b6000610db583836132e2565b612022600d8361238a565b156120635760405162461bcd60e51b815260206004820152601160248201527020b63932b0b23c9031b7b63632b1ba37b960791b6044820152606401610d30565b603261206f600d612001565b106120b55760405162461bcd60e51b815260206004820152601660248201527513585e0818dbdb1b1958dd1bdc9cc81c995858da195960521b6044820152606401610d30565b600081116120f55760405162461bcd60e51b815260206004820152600d60248201526c496e76616c696420736861726560981b6044820152606401610d30565b612100600d8361330c565b506001600160a01b0382166000908152600f602052604081208290556010805483929061212e908490614066565b90915550506040518181526001600160a01b038316907f918584c21fe4a093f5014c0dabaed3e43b642781e27984aef122cae8245fbb23906020015b60405180910390a25050565b6000306001600160a01b037f0000000000000000000000000000000000000000000000000000000000000000161480156121cf57507f000000000000000000000000000000000000000000000000000000000000000046145b156121f957507f000000000000000000000000000000000000000000000000000000000000000090565b610eb9604080517f8b73c3c69bb8fe3d512ecc4cf759cc79239f7b179b0ffacaa9a75d522b39400f60208201527f0000000000000000000000000000000000000000000000000000000000000000918101919091527f000000000000000000000000000000000000000000000000000000000000000060608201524660808201523060a082015260009060c00160405160208183030381529060405280519060200120905090565b8154600090818160058111156122fb5760006122bc84613321565b6122c6908561403d565b600088815260209020909150869082015463ffffffff1611156122eb578091506122f9565b6122f6816001614066565b92505b505b8082101561234857600061230f8383613409565b600088815260209020909150869082015463ffffffff16111561233457809150612342565b61233f816001614066565b92505b506122fb565b8015612374576000868152602090208101600019015464010000000090046001600160e01b0316612377565b60005b6001600160e01b03169695505050505050565b6001600160a01b03811660009081526001830160205260408120541515610db5565b6001600160a01b0381166123f35760405162461bcd60e51b815260206004820152600e60248201526d24b73b30b634b2103937baba32b960911b6044820152606401610d30565b601180546001600160a01b0319166001600160a01b0383169081179091556040805163c45a015560e01b815290516000929163c45a01559160048083019260209291908290030181865afa15801561244f573d6000803e3d6000fd5b505050506040513d601f19601f820116820180604052508101906124739190614255565b90506001600160a01b0381166124bd5760405162461bcd60e51b815260206004820152600f60248201526e496e76616c696420666163746f727960881b6044820152606401610d30565b601154604080516315ab88c960e31b815290516000926001600160a01b03169163ad5c46489160048083019260209291908290030181865afa158015612507573d6000803e3d6000fd5b505050506040513d601f19601f8201168201806040525081019061252b9190614255565b60405163e6a4390560e01b81523060048201526001600160a01b0380831660248301529192509083169063e6a4390590604401602060405180830381865afa15801561257b573d6000803e3d6000fd5b505050506040513d601f19601f8201168201806040525081019061259f9190614255565b601280546001600160a01b0319166001600160a01b03929092169182179055612655576040516364e329cb60e11b81523060048201526001600160a01b03828116602483015283169063c9c65396906044016020604051808303816000875af1158015612610573d6000803e3d6000fd5b505050506040513d601f19601f820116820180604052508101906126349190614255565b601280546001600160a01b0319166001600160a01b03929092169190911790555b6012546001600160a01b03166126a55760405162461bcd60e51b815260206004820152601560248201527424b73b30b634b2103830b4b91030b2323932b9b99760591b6044820152606401610d30565b6012546011546040516001600160a01b0392831692909116907fca394f95d8dbf1e8b2e76b9a8da90cacce1da85181a65508dab13212dc1df53b90600090a3505050565b60006126f3611b4b565b8215806127005750601054155b1561270d57506000612913565b60008061271a600d612001565b905060005b8181101561290b576000612734600d8361200b565b9050600061274360018561403d565b831461277e576010546001600160a01b0383166000908152600f602052604090205461276f908a614206565b6127799190614233565b612788565b612788858961403d565b9050861561287a576040516001600160a01b03838116602483015260448201839052600091908b169060640160408051601f198184030181529181526020820180516001600160e01b031663a9059cbb60e01b179052516127e99190614272565b6000604051808303816000865af19150503d8060008114612826576040519150601f19603f3d011682016040523d82523d6000602084013e61282b565b606091505b50509050806128745760405162461bcd60e51b8152602060048201526015602482015274151bdad95b881d1c985b9cd9995c8819985a5b1959605a1b6044820152606401610d30565b506128b2565b6040516001600160a01b0383169082156108fc029083906000818181858888f193505050501580156128b0573d6000803e3d6000fd5b505b816001600160a01b03167f06c5efeff5c320943d265dc4e5f1af95ad523555ce0c1957e367dda5514572df826040516128ed91815260200190565b60405180910390a26128ff8186614066565b9450505060010161271f565b506001925050505b610db56001600c55565b6107d061ffff16816020015161ffff16111561296d5760405162461bcd60e51b815260206004820152600f60248201526e496e76616c6964206275792066656560881b6044820152606401610d30565b6107d061ffff16816040015161ffff1611156129be5760405162461bcd60e51b815260206004820152601060248201526f496e76616c69642073656c6c2066656560801b6044820152606401610d30565b6107d061ffff16816060015161ffff161115612a135760405162461bcd60e51b8152602060048201526014602482015273496e76616c6964207472616e736665722066656560601b6044820152606401610d30565b60008160c001518260a001518360800151612a2e919061428e565b612a38919061428e565b905061ffff81161580612a50575061ffff8116612710145b612a905760405162461bcd60e51b8152602060048201526011602482015270496e76616c69642066656520736861726560781b6044820152606401610d30565b81516015805460208501516040808701516060880151608089015160a08a015160c08b015162ffffff1990971698151562ffff0019169890981761010061ffff968716021766ffffffff000000191663010000009386169390930266ffff00000000001916929092176501000000000091851691909102176affffffff000000000000001916600160381b918416919091026affff000000000000000000191617600160481b958316959095029490941761ffff60581b1916600160581b9190921602179055517ff34b49a91d91598b7774795175736ebf4db4fa5a4edf72772cf50fb27c135efd90612b849084906142a8565b60405180910390a15050565b6001600160a01b038281166000818152600960208181526040808420805485845282862054949093528787166001600160a01b03198416811790915590519190951694919391928592917f3134e8a2e6d97e929a7e54011ea5485d7d196dd5f0ba4d4ef95803e8e3fc257f9190a4611e51828483613424565b600063ffffffff821115612c6e5760405162461bcd60e51b815260206004820152602660248201527f53616665436173743a2076616c756520646f65736e27742066697420696e203360448201526532206269747360d01b6064820152608401610d30565b5090565b601880546001600160a01b038381166001600160a01b0319831681179093556040519116919082907f8be0079c531659141344cd1fd0a4f28419497f9722a3daafe3b4186f6b6457e090600090a35050565b606060ff8314612cde57612cd783613561565b9050610ccd565b818054612cea90613ff3565b80601f0160208091040260200160405190810160405280929190818152602001828054612d1690613ff3565b8015612d635780601f10612d3857610100808354040283529160200191612d63565b820191906000526020600020905b815481529060010190602001808311612d4657829003601f168201915b50505050509050610ccd565b600065ffffffffffff821115612c6e5760405162461bcd60e51b815260206004820152602660248201527f53616665436173743a2076616c756520646f65736e27742066697420696e203460448201526538206269747360d01b6064820152608401610d30565b6001600160a01b03821660009081526016602052604090205481151560ff909116151503612e165760405162461bcd60e51b8152600401610d30906141c7565b6001600160a01b038216600081815260166020908152604091829020805460ff191685151590811790915591519182527f3499bfcf9673677ba552f3fe2ea274ec7e6246da31c3c87e115b45a9b0db2efb910161216a565b6000610ccd612e7b612176565b8360405161190160f01b8152600281019290925260228201526042902090565b6000806000612eac878787876135a0565b91509150612eb981613664565b5095945050505050565b6001600160a01b03811660009081526007602052604090208054600181018255905b50919050565b6001600160a01b03821660009081526017602052604090205481151560ff909116151503612f2b5760405162461bcd60e51b8152600401610d30906141c7565b6001600160a01b038216600081815260176020908152604091829020805460ff191685151590811790915591519182527f902b2ea0acdec5a260e398590d055fe29bd61ef5dd41e45db54a4cd98d5569e0910161216a565b612f8e600d8361238a565b612fcc5760405162461bcd60e51b815260206004820152600f60248201526e2737ba10309031b7b63632b1ba37b960891b6044820152606401610d30565b6000811161300c5760405162461bcd60e51b815260206004820152600d60248201526c496e76616c696420736861726560981b6044820152606401610d30565b6001600160a01b0382166000908152600f6020526040812054601080549192839261303890849061403d565b90915550506001600160a01b0383166000908152600f602052604081208390556010805484929061306a908490614066565b909155505060408051828152602081018490526001600160a01b038516917fd350c3685bdab1285c0b97ffb6e96d96ed0ad4578a135c38250e771e7cb831aa910160405180910390a2505050565b60408051600280825260608201835260009260208301908036833701905050905030816000815181106130ed576130ed614079565b6001600160a01b03928316602091820292909201810191909152601154604080516315ab88c960e31b81529051919093169263ad5c46489260048083019391928290030181865afa158015613146573d6000803e3d6000fd5b505050506040513d601f19601f8201168201806040525081019061316a9190614255565b8160018151811061317d5761317d614079565b6001600160a01b0392831660209182029290920101526011546131a391309116856119cd565b60115460405163791ac94760e01b81526001600160a01b039091169063791ac947906131db9086908690869030904290600401614319565b600060405180830381600087803b1580156131f557600080fd5b505af115801561168e573d6000803e3d6000fd5b6011546132219030906001600160a01b0316846119cd565b60115460135460405163f305d71960e01b81523060048201526024810185905260006044820181905260648201526001600160a01b0391821660848201524260a482015291169063f305d71990839060c40160606040518083038185885af1158015613291573d6000803e3d6000fd5b50505050506040513d601f19601f820116820180604052508101906132b69190614355565b5050505050565b6000610db5836001600160a01b0384166137ae565b505050565b6132d28383836138a8565b60008260000182815481106132f9576132f9614079565b9060005260206000200154905092915050565b6000610db5836001600160a01b0384166138da565b60008160000361333357506000919050565b6000600161334084613929565b901c6001901b905060018184816133595761335961421d565b048201901c905060018184816133715761337161421d565b048201901c905060018184816133895761338961421d565b048201901c905060018184816133a1576133a161421d565b048201901c905060018184816133b9576133b961421d565b048201901c905060018184816133d1576133d161421d565b048201901c905060018184816133e9576133e961421d565b048201901c9050610db5818285816134035761340361421d565b046139bd565b60006134186002848418614233565b610db590848416614066565b816001600160a01b0316836001600160a01b0316141580156134465750600081115b156132d2576001600160a01b038316156134d4576001600160a01b0383166000908152600a602052604081208190613481906119c1856139d3565b91509150846001600160a01b03167fdec2bacdd2f05b59de34da9b523dff8be42e5e38e818c82fdb0bae774387a72483836040516134c9929190918252602082015260400190565b60405180910390a250505b6001600160a01b038216156132d2576001600160a01b0382166000908152600a60205260408120819061350a906119b5856139d3565b91509150836001600160a01b03167fdec2bacdd2f05b59de34da9b523dff8be42e5e38e818c82fdb0bae774387a7248383604051613552929190918252602082015260400190565b60405180910390a25050505050565b6060600061356e83613b48565b604080516020808252818301909252919250600091906020820181803683375050509182525060208101929092525090565b6000807f7fffffffffffffffffffffffffffffff5d576e7357a4501ddfe92f46681b20a08311156135d7575060009050600361365b565b6040805160008082526020820180845289905260ff881692820192909252606081018690526080810185905260019060a0016020604051602081039080840390855afa15801561362b573d6000803e3d6000fd5b5050604051601f1901519150506001600160a01b0381166136545760006001925092505061365b565b9150600090505b94509492505050565b600081600481111561367857613678614383565b036136805750565b600181600481111561369457613694614383565b036136e15760405162461bcd60e51b815260206004820152601860248201527f45434453413a20696e76616c6964207369676e617475726500000000000000006044820152606401610d30565b60028160048111156136f5576136f5614383565b036137425760405162461bcd60e51b815260206004820152601f60248201527f45434453413a20696e76616c6964207369676e6174757265206c656e677468006044820152606401610d30565b600381600481111561375657613756614383565b03610d705760405162461bcd60e51b815260206004820152602260248201527f45434453413a20696e76616c6964207369676e6174757265202773272076616c604482015261756560f01b6064820152608401610d30565b600081815260018301602052604081205480156138975760006137d260018361403d565b85549091506000906137e69060019061403d565b905081811461384b57600086600001828154811061380657613806614079565b906000526020600020015490508087600001848154811061382957613829614079565b6000918252602080832090910192909255918252600188019052604090208390555b855486908061385c5761385c614399565b600190038181906000526020600020016000905590558560010160008681526020019081526020016000206000905560019350505050610ccd565b6000915050610ccd565b5092915050565b6001600160a01b038381166000908152600960205260408082205485841683529120546132d292918216911683613424565b600081815260018301602052604081205461392157508154600181810184556000848152602080822090930184905584548482528286019093526040902091909155610ccd565b506000610ccd565b600080608083901c1561393e57608092831c92015b604083901c1561395057604092831c92015b602083901c1561396257602092831c92015b601083901c1561397457601092831c92015b600883901c1561398657600892831c92015b600483901c1561399857600492831c92015b600283901c156139aa57600292831c92015b600183901c15610ccd5760010192915050565b60008183106139cc5781610db5565b5090919050565b82546000908190818115613a205760008781526020902082016000190160408051808201909152905463ffffffff8116825264010000000090046001600160e01b03166020820152613a35565b60408051808201909152600080825260208201525b905080602001516001600160e01b03169350613a5584868863ffffffff16565b9250600082118015613a7f5750613a6a611417565b65ffffffffffff16816000015163ffffffff16145b15613ac457613a8d83613b70565b60008881526020902083016000190180546001600160e01b03929092166401000000000263ffffffff909216919091179055613b3e565b866040518060400160405280613ae8613adb611417565b65ffffffffffff16612c09565b63ffffffff168152602001613afc86613b70565b6001600160e01b0390811690915282546001810184556000938452602093849020835194909301519091166401000000000263ffffffff909316929092179101555b5050935093915050565b600060ff8216601f811115610ccd57604051632cd44ac360e21b815260040160405180910390fd5b60006001600160e01b03821115612c6e5760405162461bcd60e51b815260206004820152602760248201527f53616665436173743a2076616c756520646f65736e27742066697420696e20326044820152663234206269747360c81b6064820152608401610d30565b60005b83811015613bf4578181015183820152602001613bdc565b50506000910152565b60008151808452613c15816020860160208601613bd9565b601f01601f19169290920160200192915050565b602081526000610db56020830184613bfd565b6001600160a01b0381168114610d7057600080fd5b60008060408385031215613c6457600080fd5b8235613c6f81613c3c565b946020939093013593505050565b60008060408385031215613c9057600080fd5b50508035926020909101359150565b600060208284031215613cb157600080fd5b5035919050565b600060208284031215613cca57600080fd5b8135610db581613c3c565b600080600060608486031215613cea57600080fd5b8335613cf581613c3c565b92506020840135613d0581613c3c565b929592945050506040919091013590565b600081518084526020840193506020830160005b82811015613d515781516001600160a01b0316865260209586019590910190600101613d2a565b5093949350505050565b602081526000610db56020830184613d16565b80358015158114613d7e57600080fd5b919050565b60008060408385031215613d9657600080fd5b82359150613da660208401613d6e565b90509250929050565b600060e0828403128015613dc257600080fd5b509092915050565b600060208284031215613ddc57600080fd5b610db582613d6e565b60ff60f81b8816815260e060208201526000613e0460e0830189613bfd565b8281036040840152613e168189613bfd565b606084018890526001600160a01b038716608085015260a0840186905283810360c08501528451808252602080870193509091019060005b81811015613e6c578351835260209384019390920191600101613e4e565b50909b9a5050505050505050505050565b60008060408385031215613e9057600080fd5b8235613e9b81613c3c565b9150613da660208401613d6e565b803560ff81168114613d7e57600080fd5b60008060008060008060c08789031215613ed357600080fd5b8635613ede81613c3c565b95506020870135945060408701359350613efa60608801613ea9565b9598949750929560808101359460a0909101359350915050565b600080600080600080600060e0888a031215613f2f57600080fd5b8735613f3a81613c3c565b96506020880135613f4a81613c3c565b95506040880135945060608801359350613f6660808901613ea9565b9699959850939692959460a0840135945060c09093013592915050565b60008060408385031215613f9657600080fd5b8235613fa181613c3c565b91506020830135613fb181613c3c565b809150509250929050565b60008060408385031215613fcf57600080fd5b8235613fda81613c3c565b9150602083013563ffffffff81168114613fb157600080fd5b600181811c9082168061400757607f821691505b602082108103612ee557634e487b7160e01b600052602260045260246000fd5b634e487b7160e01b600052601160045260246000fd5b81810381811115610ccd57610ccd614027565b634e487b7160e01b600052604160045260246000fd5b80820180821115610ccd57610ccd614027565b634e487b7160e01b600052603260045260246000fd5b803561ffff81168114613d7e57600080fd5b600060e08284031280156140b457600080fd5b5060405160e0810167ffffffffffffffff811182821017156140e657634e487b7160e01b600052604160045260246000fd5b6040526140f283613d6e565b81526141006020840161408f565b60208201526141116040840161408f565b60408201526141226060840161408f565b60608201526141336080840161408f565b608082015261414460a0840161408f565b60a082015261415560c0840161408f565b60c08201529392505050565b815460ff81161515825261ffff600882901c81166020840152601882901c16604083015260e0820190602881901c61ffff166060840152603881901c61ffff166080840152604881901c61ffff1660a0840152605881901c61ffff1660c08401526138a1565b6020808252600b908201526a105b1c9958591e481cd95d60aa1b604082015260600190565b61ffff8281168282160390811115610ccd57610ccd614027565b8082028115828204841417610ccd57610ccd614027565b634e487b7160e01b600052601260045260246000fd5b60008261425057634e487b7160e01b600052601260045260246000fd5b500490565b60006020828403121561426757600080fd5b8151610db581613c3c565b60008251614284818460208701613bd9565b9190910192915050565b61ffff8181168382160190811115610ccd57610ccd614027565b600060e08201905082511515825261ffff602084015116602083015261ffff604084015116604083015261ffff606084015116606083015261ffff608084015116608083015260a083015161430360a084018261ffff169052565b5060c08301516138a160c084018261ffff169052565b85815284602082015260a06040820152600061433860a0830186613d16565b6001600160a01b0394909416606083015250608001529392505050565b60008060006060848603121561436a57600080fd5b5050815160208301516040909301519094929350919050565b634e487b7160e01b600052602160045260246000fd5b634e487b7160e01b600052603160045260246000fdfea26469706673582212206125785784b28b541e783781c822ad7edd74b964013e36f7f1eb32783b5c04b564736f6c634300081b0033dec2bacdd2f05b59de34da9b523dff8be42e5e38e818c82fdb0bae774387a724",
  "devdoc": {
    "events": {
      "Approval(address,address,uint256)": {
        "details": "Emitted when the allowance of a `spender` for an `owner` is set by a call to {approve}. `value` is the new allowance."
      },
      "DelegateChanged(address,address,address)": {
        "details": "Emitted when an account changes their delegate."
      },
      "DelegateVotesChanged(address,uint256,uint256)": {
        "details": "Emitted when a token transfer or delegate change results in changes to a delegate's number of votes."
      },
      "EIP712DomainChanged()": {
        "details": "MAY be emitted to signal that the domain could have changed."
      },
      "Transfer(address,address,uint256)": {
        "details": "Emitted when `value` tokens are moved from one account (`from`) to another (`to`). Note that `value` may be zero."
      }
    },
    "kind": "dev",
    "methods": {
      "CLOCK_MODE()": {
        "details": "Description of the clock"
      },
      "DOMAIN_SEPARATOR()": {
        "details": "Returns the domain separator used in the encoding of the signature for {permit}, as defined by {EIP712}."
      },
      "allowance(address,address)": {
        "details": "See {IERC20-allowance}."
      },
      "approve(address,uint256)": {
        "details": "See {IERC20-approve}. NOTE: If `amount` is the maximum `uint256`, the allowance is not updated on `transferFrom`. This is semantically equivalent to an infinite approval. Requirements: - `spender` cannot be the zero address."
      },
      "balanceOf(address)": {
        "details": "See {IERC20-balanceOf}."
      },
      "checkpoints(address,uint32)": {
        "details": "Get the `pos`-th checkpoint for `account`."
      },
      "clock()": {
        "details": "Clock used for flagging checkpoints. Can be overridden to implement timestamp based checkpoints (and voting)."
      },
      "decimals()": {
        "details": "Returns the number of decimals used to get its user representation. For example, if `decimals` equals `2`, a balance of `505` tokens should be displayed to a user as `5.05` (`505 / 10 ** 2`). Tokens usually opt for a value of 18, imitating the relationship between Ether and Wei. This is the default value returned by this function, unless it's overridden. NOTE: This information is only used for _display_ purposes: it in no way affects any of the arithmetic of the contract, including {IERC20-balanceOf} and {IERC20-transfer}."
      },
      "decreaseAllowance(address,uint256)": {
        "details": "Atomically decreases the allowance granted to `spender` by the caller. This is an alternative to {approve} that can be used as a mitigation for problems described in {IERC20-approve}. Emits an {Approval} event indicating the updated allowance. Requirements: - `spender` cannot be the zero address. - `spender` must have allowance for the caller of at least `subtractedValue`."
      },
      "delegate(address)": {
        "details": "Delegate votes from the sender to `delegatee`."
      },
      "delegateBySig(address,uint256,uint256,uint8,bytes32,bytes32)": {
        "details": "Delegates votes from signer to `delegatee`"
      },
      "delegates(address)": {
        "details": "Get the address `account` is currently delegating to."
      },
      "eip712Domain()": {
        "details": "See {EIP-5267}. _Available since v4.9._"
      },
      "getPastTotalSupply(uint256)": {
        "details": "Retrieve the `totalSupply` at the end of `timepoint`. Note, this value is the sum of all balances. It is NOT the sum of all the delegated votes! Requirements: - `timepoint` must be in the past"
      },
      "getPastVotes(address,uint256)": {
        "details": "Retrieve the number of votes for `account` at the end of `timepoint`. Requirements: - `timepoint` must be in the past"
      },
      "getVotes(address)": {
        "details": "Gets the current votes balance for `account`"
      },
      "increaseAllowance(address,uint256)": {
        "details": "Atomically increases the allowance granted to `spender` by the caller. This is an alternative to {approve} that can be used as a mitigation for problems described in {IERC20-approve}. Emits an {Approval} event indicating the updated allowance. Requirements: - `spender` cannot be the zero address."
      },
      "name()": {
        "details": "Returns the name of the token."
      },
      "nonces(address)": {
        "details": "Returns the current nonce for `owner`. This value must be included whenever a signature is generated for {permit}. Every successful call to {permit} increases ``owner``'s nonce by one. This prevents a signature from being used multiple times."
      },
      "numCheckpoints(address)": {
        "details": "Get number of checkpoints for `account`."
      },
      "owner()": {
        "details": "Returns the address of the current owner."
      },
      "permit(address,address,uint256,uint256,uint8,bytes32,bytes32)": {
        "details": "Sets `value` as the allowance of `spender` over ``owner``'s tokens, given ``owner``'s signed approval. IMPORTANT: The same issues {IERC20-approve} has related to transaction ordering also apply here. Emits an {Approval} event. Requirements: - `spender` cannot be the zero address. - `deadline` must be a timestamp in the future. - `v`, `r` and `s` must be a valid `secp256k1` signature from `owner` over the EIP712-formatted function arguments. - the signature must use ``owner``'s current nonce (see {nonces}). For more information on the signature format, see the https://eips.ethereum.org/EIPS/eip-2612#specification[relevant EIP section]. CAUTION: See Security Considerations above."
      },
      "renounceOwnership()": {
        "details": "Leaves the contract without owner. It will not be possible to call `onlyOwner` functions. Can only be called by the current owner. NOTE: Renouncing ownership will leave the contract without an owner, thereby disabling any functionality that is only available to the owner."
      },
      "symbol()": {
        "details": "Returns the symbol of the token, usually a shorter version of the name."
      },
      "totalSupply()": {
        "details": "See {IERC20-totalSupply}."
      },
      "transfer(address,uint256)": {
        "details": "See {IERC20-transfer}. Requirements: - `to` cannot be the zero address. - the caller must have a balance of at least `amount`."
      },
      "transferFrom(address,address,uint256)": {
        "details": "See {IERC20-transferFrom}. Emits an {Approval} event indicating the updated allowance. This is not required by the EIP. See the note at the beginning of {ERC20}. NOTE: Does not update the allowance if the current allowance is the maximum `uint256`. Requirements: - `from` and `to` cannot be the zero address. - `from` must have a balance of at least `amount`. - the caller must have allowance for ``from``'s tokens of at least `amount`."
      },
      "transferOwnership(address)": {
        "details": "Transfers ownership of the contract to a new account (`newOwner`). Can only be called by the current owner."
      }
    },
    "version": 1
  },
  "userdoc": {
    "kind": "user",
    "methods": {},
    "notice": "[Audit Note - IVotes Integration] Extended from ERC20Votes and ERC20Permit for snapshot-based voting and off-chain vote delegation support (EIP-2612 compliant).",
    "version": 1
  },
  "storageLayout": {
    "storage": [
      {
        "astId": 4755,
        "contract": "contracts/BSTRToken.sol:BSTRToken",
        "label": "_balances",
        "offset": 0,
        "slot": "0",
        "type": "t_mapping(t_address,t_uint256)"
      },
      {
        "astId": 4761,
        "contract": "contracts/BSTRToken.sol:BSTRToken",
        "label": "_allowances",
        "offset": 0,
        "slot": "1",
        "type": "t_mapping(t_address,t_mapping(t_address,t_uint256))"
      },
      {
        "astId": 4763,
        "contract": "contracts/BSTRToken.sol:BSTRToken",
        "label": "_totalSupply",
        "offset": 0,
        "slot": "2",
        "type": "t_uint256"
      },
      {
        "astId": 4765,
        "contract": "contracts/BSTRToken.sol:BSTRToken",
        "label": "_name",
        "offset": 0,
        "slot": "3",
        "type": "t_string_storage"
      },
      {
        "astId": 4767,
        "contract": "contracts/BSTRToken.sol:BSTRToken",
        "label": "_symbol",
        "offset": 0,
        "slot": "4",
        "type": "t_string_storage"
      },
      {
        "astId": 9318,
        "contract": "contracts/BSTRToken.sol:BSTRToken",
        "label": "_nameFallback",
        "offset": 0,
        "slot": "5",
        "type": "t_string_storage"
      },
      {
        "astId": 9320,
        "contract": "contracts/BSTRToken.sol:BSTRToken",
        "label": "_versionFallback",
        "offset": 0,
        "slot": "6",
        "type": "t_string_storage"
      },
      {
        "astId": 5427,
        "contract": "contracts/BSTRToken.sol:BSTRToken",
        "label": "_nonces",
        "offset": 0,
        "slot": "7",
        "type": "t_mapping(t_address,t_struct(Counter)8296_storage)"
      },
      {
        "astId": 5435,
        "contract": "contracts/BSTRToken.sol:BSTRToken",
        "label": "_PERMIT_TYPEHASH_DEPRECATED_SLOT",
        "offset": 0,
        "slot": "8",
        "type": "t_bytes32"
      },
      {
        "astId": 5602,
        "contract": "contracts/BSTRToken.sol:BSTRToken",
        "label": "_delegates",
        "offset": 0,
        "slot": "9",
        "type": "t_mapping(t_address,t_address)"
      },
      {
        "astId": 5608,
        "contract": "contracts/BSTRToken.sol:BSTRToken",
        "label": "_checkpoints",
        "offset": 0,
        "slot": "10",
        "type": "t_mapping(t_address,t_array(t_struct(Checkpoint)5593_storage)dyn_storage)"
      },
      {
        "astId": 5612,
        "contract": "contracts/BSTRToken.sol:BSTRToken",
        "label": "_totalSupplyCheckpoints",
        "offset": 0,
        "slot": "11",
        "type": "t_array(t_struct(Checkpoint)5593_storage)dyn_storage"
      },
      {
        "astId": 4644,
        "contract": "contracts/BSTRToken.sol:BSTRToken",
        "label": "_status",
        "offset": 0,
        "slot": "12",
        "type": "t_uint256"
      },
      {
        "astId": 14257,
        "contract": "contracts/BSTRToken.sol:BSTRToken",
        "label": "_collectors",
        "offset": 0,
        "slot": "13",
        "type": "t_struct(AddressSet)12705_storage"
      },
      {
        "astId": 14261,
        "contract": "contracts/BSTRToken.sol:BSTRToken",
        "label": "_shares",
        "offset": 0,
        "slot": "15",
        "type": "t_mapping(t_address,t_uint256)"
      },
      {
        "astId": 14263,
        "contract": "contracts/BSTRToken.sol:BSTRToken",
        "label": "totalFeeCollectorsShares",
        "offset": 0,
        "slot": "16",
        "type": "t_uint256"
      },
      {
        "astId": 14750,
        "contract": "contracts/BSTRToken.sol:BSTRToken",
        "label": "swapRouter",
        "offset": 0,
        "slot": "17",
        "type": "t_contract(IUniswapV2Router02)13999"
      },
      {
        "astId": 14752,
        "contract": "contracts/BSTRToken.sol:BSTRToken",
        "label": "swapPair",
        "offset": 0,
        "slot": "18",
        "type": "t_address"
      },
      {
        "astId": 14754,
        "contract": "contracts/BSTRToken.sol:BSTRToken",
        "label": "liquidityOwner",
        "offset": 0,
        "slot": "19",
        "type": "t_address"
      },
      {
        "astId": 14756,
        "contract": "contracts/BSTRToken.sol:BSTRToken",
        "label": "_processingFees",
        "offset": 20,
        "slot": "19",
        "type": "t_bool"
      },
      {
        "astId": 14758,
        "contract": "contracts/BSTRToken.sol:BSTRToken",
        "label": "autoProcessFees",
        "offset": 21,
        "slot": "19",
        "type": "t_bool"
      },
      {
        "astId": 14760,
        "contract": "contracts/BSTRToken.sol:BSTRToken",
        "label": "numTokensToSwap",
        "offset": 0,
        "slot": "20",
        "type": "t_uint256"
      },
      {
        "astId": 14763,
        "contract": "contracts/BSTRToken.sol:BSTRToken",
        "label": "feeConfiguration",
        "offset": 0,
        "slot": "21",
        "type": "t_struct(FeeConfiguration)14735_storage"
      },
      {
        "astId": 14767,
        "contract": "contracts/BSTRToken.sol:BSTRToken",
        "label": "_excludedFromFees",
        "offset": 0,
        "slot": "22",
        "type": "t_mapping(t_address,t_bool)"
      },
      {
        "astId": 14771,
        "contract": "contracts/BSTRToken.sol:BSTRToken",
        "label": "_lpPools",
        "offset": 0,
        "slot": "23",
        "type": "t_mapping(t_address,t_bool)"
      },
      {
        "astId": 396,
        "contract": "contracts/BSTRToken.sol:BSTRToken",
        "label": "_owner",
        "offset": 0,
        "slot": "24",
        "type": "t_address"
      },
      {
        "astId": 13010,
        "contract": "contracts/BSTRToken.sol:BSTRToken",
        "label": "taxRateUpdater",
        "offset": 0,
        "slot": "25",
        "type": "t_address"
      }
    ],
    "types": {
      "t_address": {
        "encoding": "inplace",
        "label": "address",
        "numberOfBytes": "20"
      },
      "t_array(t_bytes32)dyn_storage": {
        "base": "t_bytes32",
        "encoding": "dynamic_array",
        "label": "bytes32[]",
        "numberOfBytes": "32"
      },
      "t_array(t_struct(Checkpoint)5593_storage)dyn_storage": {
        "base": "t_struct(Checkpoint)5593_storage",
        "encoding": "dynamic_array",
        "label": "struct ERC20Votes.Checkpoint[]",
        "numberOfBytes": "32"
      },
      "t_bool": {
        "encoding": "inplace",
        "label": "bool",
        "numberOfBytes": "1"
      },
      "t_bytes32": {
        "encoding": "inplace",
        "label": "bytes32",
        "numberOfBytes": "32"
      },
      "t_contract(IUniswapV2Router02)13999": {
        "encoding": "inplace",
        "label": "contract IUniswapV2Router02",
        "numberOfBytes": "20"
      },
      "t_mapping(t_address,t_address)": {
        "encoding": "mapping",
        "key": "t_address",
        "label": "mapping(address => address)",
        "numberOfBytes": "32",
        "value": "t_address"
      },
      "t_mapping(t_address,t_array(t_struct(Checkpoint)5593_storage)dyn_storage)": {
        "encoding": "mapping",
        "key": "t_address",
        "label": "mapping(address => struct ERC20Votes.Checkpoint[])",
        "numberOfBytes": "32",
        "value": "t_array(t_struct(Checkpoint)5593_storage)dyn_storage"
      },
      "t_mapping(t_address,t_bool)": {
        "encoding": "mapping",
        "key": "t_address",
        "label": "mapping(address => bool)",
        "numberOfBytes": "32",
        "value": "t_bool"
      },
      "t_mapping(t_address,t_mapping(t_address,t_uint256))": {
        "encoding": "mapping",
        "key": "t_address",
        "label": "mapping(address => mapping(address => uint256))",
        "numberOfBytes": "32",
        "value": "t_mapping(t_address,t_uint256)"
      },
      "t_mapping(t_address,t_struct(Counter)8296_storage)": {
        "encoding": "mapping",
        "key": "t_address",
        "label": "mapping(address => struct Counters.Counter)",
        "numberOfBytes": "32",
        "value": "t_struct(Counter)8296_storage"
      },
      "t_mapping(t_address,t_uint256)": {
        "encoding": "mapping",
        "key": "t_address",
        "label": "mapping(address => uint256)",
        "numberOfBytes": "32",
        "value": "t_uint256"
      },
      "t_mapping(t_bytes32,t_uint256)": {
        "encoding": "mapping",
        "key": "t_bytes32",
        "label": "mapping(bytes32 => uint256)",
        "numberOfBytes": "32",
        "value": "t_uint256"
      },
      "t_string_storage": {
        "encoding": "bytes",
        "label": "string",
        "numberOfBytes": "32"
      },
      "t_struct(AddressSet)12705_storage": {
        "encoding": "inplace",
        "label": "struct EnumerableSet.AddressSet",
        "members": [
          {
            "astId": 12704,
            "contract": "contracts/BSTRToken.sol:BSTRToken",
            "label": "_inner",
            "offset": 0,
            "slot": "0",
            "type": "t_struct(Set)12390_storage"
          }
        ],
        "numberOfBytes": "64"
      },
      "t_struct(Checkpoint)5593_storage": {
        "encoding": "inplace",
        "label": "struct ERC20Votes.Checkpoint",
        "members": [
          {
            "astId": 5590,
            "contract": "contracts/BSTRToken.sol:BSTRToken",
            "label": "fromBlock",
            "offset": 0,
            "slot": "0",
            "type": "t_uint32"
          },
          {
            "astId": 5592,
            "contract": "contracts/BSTRToken.sol:BSTRToken",
            "label": "votes",
            "offset": 4,
            "slot": "0",
            "type": "t_uint224"
          }
        ],
        "numberOfBytes": "32"
      },
      "t_struct(Counter)8296_storage": {
        "encoding": "inplace",
        "label": "struct Counters.Counter",
        "members": [
          {
            "astId": 8295,
            "contract": "contracts/BSTRToken.sol:BSTRToken",
            "label": "_value",
            "offset": 0,
            "slot": "0",
            "type": "t_uint256"
          }
        ],
        "numberOfBytes": "32"
      },
      "t_struct(FeeConfiguration)14735_storage": {
        "encoding": "inplace",
        "label": "struct TaxableToken.FeeConfiguration",
        "members": [
          {
            "astId": 14722,
            "contract": "contracts/BSTRToken.sol:BSTRToken",
            "label": "feesInToken",
            "offset": 0,
            "slot": "0",
            "type": "t_bool"
          },
          {
            "astId": 14724,
            "contract": "contracts/BSTRToken.sol:BSTRToken",
            "label": "buyFees",
            "offset": 1,
            "slot": "0",
            "type": "t_uint16"
          },
          {
            "astId": 14726,
            "contract": "contracts/BSTRToken.sol:BSTRToken",
            "label": "sellFees",
            "offset": 3,
            "slot": "0",
            "type": "t_uint16"
          },
          {
            "astId": 14728,
            "contract": "contracts/BSTRToken.sol:BSTRToken",
            "label": "transferFees",
            "offset": 5,
            "slot": "0",
            "type": "t_uint16"
          },
          {
            "astId": 14730,
            "contract": "contracts/BSTRToken.sol:BSTRToken",
            "label": "burnFeeRatio",
            "offset": 7,
            "slot": "0",
            "type": "t_uint16"
          },
          {
            "astId": 14732,
            "contract": "contracts/BSTRToken.sol:BSTRToken",
            "label": "liquidityFeeRatio",
            "offset": 9,
            "slot": "0",
            "type": "t_uint16"
          },
          {
            "astId": 14734,
            "contract": "contracts/BSTRToken.sol:BSTRToken",
            "label": "collectorsFeeRatio",
            "offset": 11,
            "slot": "0",
            "type": "t_uint16"
          }
        ],
        "numberOfBytes": "32"
      },
      "t_struct(Set)12390_storage": {
        "encoding": "inplace",
        "label": "struct EnumerableSet.Set",
        "members": [
          {
            "astId": 12385,
            "contract": "contracts/BSTRToken.sol:BSTRToken",
            "label": "_values",
            "offset": 0,
            "slot": "0",
            "type": "t_array(t_bytes32)dyn_storage"
          },
          {
            "astId": 12389,
            "contract": "contracts/BSTRToken.sol:BSTRToken",
            "label": "_indexes",
            "offset": 0,
            "slot": "1",
            "type": "t_mapping(t_bytes32,t_uint256)"
          }
        ],
        "numberOfBytes": "64"
      },
      "t_uint16": {
        "encoding": "inplace",
        "label": "uint16",
        "numberOfBytes": "2"
      },
      "t_uint224": {
        "encoding": "inplace",
        "label": "uint224",
        "numberOfBytes": "28"
      },
      "t_uint256": {
        "encoding": "inplace",
        "label": "uint256",
        "numberOfBytes": "32"
      },
      "t_uint32": {
        "encoding": "inplace",
        "label": "uint32",
        "numberOfBytes": "4"
      }
    }
  }
}